S011000073656374696F6E5F312E737265638E
S11300000C942A000C9434000C9434000C943400A6
S11300100C9434000C9434000C9434000C9434008C
S11300200C9434000C9434000C9434000C9434007C
S11300300C9434000C9434000C9434000C9434006C
S11300400C9434000C9434000C9434000C9434005C
S11300500C94340011241FBECFE5D8E0DEBFCDBF21
S11300600E9436000C9475000C9400008FEF8ABB3C
S113007084B3816084BB989BFECF14C081E090E080
S1130080022E02C0880F991F0A94E2F79BB3892BB2
S11300908BBB87EA91E60197F1F700C000002F5F60
S11300A03F4F02C020E030E0283031053CF3989BFC
S11300B0FECF27E030E014C081E090E0022E02C0C1
S11300C0880F991F0A94E2F780959BB389238BBB11
S11300D087EA91E60197F1F700C000002150310949
S11100E0332354F7989BFECFC6CFF894FFCF7E
S9030000FC
